:10100000809001209DB80000E3F7040089B800003B
:1010100089B8000089B8000089B80000000000000D
:1010200000000000000000000000000085BA000081
:1010300089B800000000000051BA000089B8000023
:1010400039BC0000F724050039BC000039BC0000A1
:1010500039BC000039BC000039BC000039BC0000BC
:10106000AD24050039BC000039BC0000E1240500B6
:1010700039BC000039BC000039BC000039BC00009C
:1010800039BC000039BC000039BC000039BC00008C
:1010900039BC000039BC000039BC000039BC00007C
:1010A00039BC000039BC000039BC000039BC00006C
:1010B00039BC000039BC000039BC000039BC00005C
:1010C00039BC000039BC000039BC000039BC00004C
:1010D00039BC000039BC000039BC000039BC00003C
:1010E00039BC000039BC000039BC000039BC00002C
:1010F00039BC000039BC000039BC000039BC00001C
:1011000001F0FF01102A2BDB10F0070F08D010F8B8
:10111000013B013A8B422DD010F0070F42B3F6D1BC
:10112000F0B441EA012141EA014122F007047FF0D5
:1011300000070023F0E80256083C85EA010586EA2C
:10114000010685FA47F5A3FA87F586FA47F6A5FA68
:1011500087F68EB9EED1F0BC01F0FF0102F0070274
:1011600032B110F8013B013A83EA010313B1F8D11F
:101170000020704701387047002D06BF3546033800
:10118000073815F0010F07D1013015F4807F02BF39
:10119000013015F4C03F0130F0BC0138704700BF8A
:1011A0002DE9F14F03F11C0402EB840C4FEA930B81
:1011B0008A68CB680868496800F046F93CE9F000A5
:1011C0006040694072407B400BF1060E4EE083EABE
:1011D000134480EA134582EA134746BA96EA344438
:1011E000604000F00F1684EA063420F00F1684EAFF
:1011F000161054BA94EA0106724002F00F1486EAFF
:10120000043622F00F1486EA14124CBA6540694085
:1012100001F00F1485EA043521F00F1485EA14114A
:101220005CBA67407B4003F00F1487EA043723F071
:101230000F1487EA141344BA44404DBA4D4056BACD
:1012400056405FBA5F4087EA174886EA174B84EA40
:1012500017464FEA38488BEA1B4485EA1B4788EA61
:101260001B4580EA3440694072407B4000F0703496
:1012700000F0803500F00F3040EA440040EAD5002D
:1012800080EA900404F0332480EA8400604001F096
:10129000703401F0803501F00F3141EA440141EA38
:1012A000D50181EA910404F0332481EA840161408C
:1012B00002F0703402F0803502F00F3242EA44024C
:1012C00042EAD50282EA920404F0332482EA8402DC
:1012D000624003F0703403F0803503F00F3343EACB
:1012E000440343EAD50383EA930404F0332483EAF6
:1012F00084036340C943DB4381EA000483EA044674
:1013000086EA020183EA014382EA334583EA144311
:101310005C4084EA00077FEA040A8AEA024A8AEA11
:10132000010B87EA11488AEA374A80EA060181EA16
:101330001A418AEA030A04EA0A00454088EA0407D7
:1013400007EA0B0041408AEA0B0608EA060084EA35
:1013500034428AEA3A4602EA060358404540414090
:1013600087EA37438BEA3B4003EA000985EA09052F
:1013700082EA0309464006EA0906714085EA01004F
:1013800005EA3546464006EA314181EA304181EAC4
:10139000364606EA304686EA354634400F4086EA4D
:1013A000010508EA050886EA3640024088EA020894
:1013B00081EA314213405C4080EA020309EA0309F2
:1013C00087EA0907674088EA040806EA0A0601EA8C
:1013D0000B018AEA0B0425408AEA3A442040454042
:1013E0008BEA3B4B02EA0B02564084EA0B04234093
:1013F00059406E40694087EA364080EA384080EACA
:10140000060380EA104481EA134585EA344585EAFB
:1014100017427D4082EA354180EA05403CE9F00010
:101420006040694072407B40BEF1010E3FF6CFAE96
:1014300020BC00F05FF828606960AA60EB60BDE83E
:10144000F08F00BF00F000BA80EA101404F0F0142E
:1014500080EA0410604081EA111404F0F01481EA7B
:101460000411614082EA121404F0F01482EA0412BA
:10147000624083EA131404F0F01483EA0413634017
:1014800080EA102404F47F4480EA0420604081EA6A
:10149000112404F47F4481EA0421614082EA122489
:1014A00004F47F4482EA0422624083EA132404F4B1
:1014B0007F4483EA0423634081EA500404F05534F6
:1014C00080EA4400614083EA520404F0553482EA21
:1014D0004402634082EA900404F0333480EA8400DA
:1014E000624083EA910404F0333481EA840163406A
:1014F000704700BF82EA900404F0333480EA84002D
:10150000624083EA910404F0333481EA8401634049
:1015100081EA500404F0553480EA4400614083EAD3
:10152000520404F0553482EA4402634080EA1024F5
:1015300004F47F4480EA0420604081EA112404F42A
:101540007F4481EA0421614082EA122404F47F444A
:1015500082EA0422624083EA132404F47F4483EA8B
:101560000423634080EA101404F0F01480EA0410AD
:10157000604081EA111404F0F01481EA0411614022
:1015800082EA121404F0F01482EA0412624083EA40
:10159000131404F0F01483EA04136340704700BF8F
:1015A0002DE9F14F94464FEA930B8A68CB6808689F
:1015B0004968FFF749FF0BF1060E33E083EA134455
:1015C00080EA134582EA134746BA96EA34446040FB
:1015D00000F00F1684EA063420F00F1684EA161085
:1015E00054BA94EA0106724002F00F1486EA0436F7
:1015F00022F00F1486EA14124CBA6540694001F0DB
:101600000F1485EA043521F00F1485EA14115CBA31
:1016100067407B4003F00F1487EA043723F00F1470
:1016200087EA1413BCE8F0006040694072407B40D8
:1016300000F0E03400F0103500F00F3040EA5400C4
:1016400040EAC50080EA900404F0332480EA840074
:10165000604001F0E03401F0103501F00F3141EA53
:10166000540141EAC50181EA910404F0332481EA7E
:101670008401614002F0E03402F0103502F00F32D4
:1016800042EA540242EAC50282EA920404F0332498
:1016900082EA8402624003F0E03403F0103503F084
:1016A0000F3343EA540343EAC50383EA930404F087
:1016B000332483EA8403634081EA324787EA13458F
:1016C00081EA354690EA060484EA034B82EA1B422B
:1016D00080EA044484EA054483EA144A85EA14440F
:1016E0008BEA044B84EA374481EA0B4181EA1641D4
:1016F00004EA0A00454082EA04082BEA0800414057
:101700008AEA0B0602EA060084EA34438AEA3A4689
:1017100003EA060778404540414088EA38478BEAAB
:101720003B4007EA000985EA090583EA07094640C4
:1017300006EA0906714085EA010005EA3546464099
:1017400006EA314181EA304181EA364606EA30460E
:1017500086EA3546344008EA010886EA01052A404F
:1017600086EA364003405A4081EA31431F407C40BC
:1017700080EA030709EA070988EA0908544088EA69
:10178000020806EA0A0601EA0B018AEA0B02154082
:101790008AEA3A42104045408BEA3B4003405E40B3
:1017A0004240174079404D404E40E443F64386EABC
:1017B00018435D4085EA054083EA134386EA034106
:1017C00083EA384284EA114383EA04435FEA3343FD
:1017D000BEF1010E3FF6F2AE1ED4BCE8F000604050
:1017E000694072407B4020BCFFF784FE286069603E
:1017F000AA60EB60BDE8F08F2DE9E0414FF2F00206
:1018000080EA1031114080EA0130484041088208E6
:10181000C3084FF0000E4FE700F0113001F0113116
:1018200002F0113203F0113340EA410040EA820035
:1018300040EAC3004FF2F00280EA1031114080EA22
:1018400001304840BDE8E0812DE9F04F02F11C0570
:101850000646074600EB850851F8040B043A46F8A3
:10186000040BF9D14FF0010CFFF7C6FF5FEA3020FF
:1018700080EA0C001ECF41404A4053405C401EC6E7
:101880002000464517D04FEA4C0C1CF4807F18BF4F
:10189000ACF1E50C2C2DE7D03C2D06D1FFF7ACFFC9
:1018A00006CF41404A4006C6100006CF41404A409C
:1018B00006C61000D8E736E90F00FFF7C5FD043D66
:1018C00086E80F00F7D1BDE8F08F00BF70B491E853
:1018D0007800B2E802105B1854EB0C04B2E8021076
:1018E0004D4156EB0C0680E878008041013070BC19
:1018F000704700BF70B491E87800B2E802105B1A3C
:1019000074EB0C04B2E802108D4176EB0C0680E813
:1019100078008041404270BC704700BF2DE9F0075D
:1019200091E80017C0CAA8FB063440F8043BA9FBA5
:101930000615E8FB6741EAFB665140F8044BA9FB3A
:101940000743ECFB661344CAE8FB6254EAFB6714E6
:10195000ECFB673440F8045BA9FB0275EAFB6235D7
:10196000ECFB6245E8FB6617E9FB6637EAFB664776
:10197000ECFB6657BAC0BDE8F00770472DE9F007E9
:1019800091E8F807B2E802105B1854EB0C04B2E8D7
:1019900002104D4156EB0C06B2E802104F4158EBD5
:1019A0000C08B2E8021059EB01095AEB0C0A80E866
:1019B000F80780410130BDE8F00770472DE9F007D6
:1019C00091E8F807B2E802105B1A74EB0C04B2E875
:1019D00002108D4176EB0C06B2E802108F4178EBD5
:1019E0000C08B2E8021079EB01097AEB0C0A80E8E6
:1019F000F80780414042BDE8F00770472DE9F00745
:101A0000524290E87800B1E880071740DB1918EAE5
:101A1000020854EB080419EA020955EB09051AEA11
:101A2000020A56EB0A0678C090E87800B1E8800711
:101A300017407B4118EA020854EB080419EA02092E
:101A400055EB09051AEA020A56EB0A0678C08041EE
:101A50000130BDE8F00770472DE9F007524290E8E9
:101A60007800B1E880071740DB1B18EA020874EB26
:101A7000080419EA020975EB09051AEA020A76EB6D
:101A80000A0678C090E87800B1E880071740BB41AB
:101A900018EA020874EB080419EA020975EB090553
:101AA0001AEA020A76EB0A0678C080414042BDE895
:101AB000F00770472DE9F00152424FF0040890E81A
:101AC000300091E8C000A31B1340E41AF618EB1B8A
:101AD0001340ED1AFF1830C0C0C1B8F10108EED1B3
:101AE000BDE8F001704700BF00B592E8DC072DE9C2
:101AF000DC07B1E8805702B4A7FB02510A95A8FBA6
:101B0000020BE7FB6310E9FB62B00B91A8FB0351EA
:101B1000EAFB6201E7FB64B5E7FB6605E8FB6615D7
:101B2000CDF830B0A9FB03B6EAFB6316ECFB6356B5
:101B3000E8FB640BE9FB641BEAFB645BECFB646B96
:101B40000D90ACFB0230059CEEFB6250E9FB64603B
:101B5000EAFB64B0E7FB6431E8FB6451069CE8FBF8
:101B60006461E9FB64B1EAFB64010E93A7FB0432F4
:101B7000079CE7FB6462E8FB64B2E9FB6402EAFBF2
:101B80006412049CE9FB6453EAFB6463089CE7FB72
:101B900064B3E8FB6403E9FB6413EAFB64230F9579
:101BA0005DF8049B99E80006DDF80080A9FB085465
:101BB000EAFB68B4DDF81080ECFB6804EEFB681407
:101BC000E9FB6824EAFB6834DDF80480EEFB686515
:101BD000E9FB68B5EAFB6805DDF81480ECFB6815E5
:101BE000EEFB6825E9FB6835EAFB68450F96DDF8F2
:101BF0000880AEFB0876E9FB6806EAFB6816DDF8AC
:101C00001880ECFB6826EEFB6836E9FB6846EAFBC9
:101C10006856DDF80C80ECFB68B7EEFB6807E9FB63
:101C20006817EAFB6827DDF81C80ECFB6837EEFBE1
:101C30006847E9FB6857EAFB686708B000BD00BF6A
:101C40002DE9F14F87B0FFF74FFFDDF81C8008F159
:101C5000200888E8FF00FFBC87E87F08BDE8F08F18
:101C600000B591E89857A3FB03520195A3FB04012B
:101C7000E3FB6420E3FB67100292A3FB0752E3FB44
:101C80006802E4FB6415E3FB6805E3FB6925039147
:101C9000A4FB07B6E3FB6926E3FB6A56E4FB670B8C
:101CA000E4FB682BE3FB6A5BE3FB6C6B0490A4FB37
:101CB0000810E4FB6950E3FB6C60E3FB6EB0E7FBEC
:101CC0006721E4FB6951E4FB6A61E3FB6EB1E4FB6D
:101CD0006E010592A7FB0832E4FB6A62E4FB6CB27A
:101CE000E4FB6E02E7FB6E12E7FB6853E7FB6963F8
:101CF000E4FB6CB3E7FB6C03E7FB6E13E8FB6E23BE
:101D00000695A7FB0954E7FB6AB4E7FB6C04E8FB04
:101D10006C14E8FB6E24E9FB6E34E8FB6865E7FBB6
:101D20006AB5E8FB6A05E8FB6C15E9FB6C25E9FB85
:101D30006E35EAFB6E450796A8FB0976E8FB6A0656
:101D4000E9FB6A16E9FB6C26EAFB6C36EAFB6E4699
:101D5000ECFB6E56E8FB69B7E9FB6907E9FB6A171C
:101D6000EAFB6A27EAFB6C37ECFB6C47ECFB6E572F
:101D7000EEFB6E6700BD00BF2DE9F14F87B0FFF7A6
:101D80006FFFDDF81C8008F1200888E8FF00FFBC29
:101D900087E87F08BDE8F08F30B44FF0000310F8FB
:101DA000014B11F8015B013A84EA050443EA04039C
:101DB000F5D1A3F101034FEAD37030BC704700BFE7
:101DC0004FF0000310F8012B013943EA0203F9D167
:101DD000A3F101034FEAD370704700BF30B411F88C
:101DE000014B12F8015B6C4000F8014B013BF6D14E
:101DF00030BC70472DE9F00791E8F807B2E802100F
:101E00005B1854EB0C04B2E802104D4156EB0C0683
:101E1000B2E802104F4158EB0C08B2E8021059EB3F
:101E200001095AEB0C0A8941B3F1FF3374F1FF3415
:101E300075F1FF3576F1000677F1000778F10008BB
:101E400079F101097AF1FF3A51F100015B184C4137
:101E50004D4156F1000657F1000758F1000859EBC3
:101E6000D1795AEB010A80E8F807BDE8F00770471E
:101E70002DE9F00791E8F807B2E802105B1A74EB5D
:101E80000C04B2E802108D4176EB0C06B2E80210A9
:101E90008F4178EB0C08B2E8021079EB01097AEB7C
:101EA0000C0A89415B184C414D4156F1000657F12F
:101EB000000758F1000859EBD1795AEB010A80E884
:101EC000F807BDE8F007704718EB040859EB05095F
:101ED0005AEB060A5BEB070B5FF0000C4CF1000CB1
:101EE00018EB050859EB06095AEB070A5BEB070BE1
:101EF00050EB0C005FF0000C51EB0C0152EB0C02AC
:101F000063414CF1000CB8EB070879F100097AF154
:101F1000000A7BEB040BA841B141A241B3416CF133
:101F2000000CBBEB050BB041B941AA41BB416CF1C0
:101F3000000C4CF001068CF0020718EB060859EB78
:101F40006C095AEB6C0A7BEB6C0B70EB6C0471EB5D
:101F50006C0572EB670653EB6C076CEB6C0C18EBC3
:101F60000C0059EB0C015AEB0C025BF1000354F12D
:101F7000000455F1000556EBDC7657EB0C07704773
:101F80002DE9F14F87B0FFF7AFFDDDF81080DDF8E8
:101F90001490DDF818A0FFF797FFBDE8000FFFF7DA
:101FA00093FF03B05DF8048B88E8FF00BDE8F08F75
:101FB0002DE9F14F87B0FFF753FEDDF81080DDF813
:101FC0001490DDF818A0FFF77FFFBDE8000FFFF7C2
:101FD0007BFF03B05DF8048B88E8FF00BDE8F08F5D
:101FE0002DE9F14FF8C892E8005E19EB03095AEBAE
:101FF000040A5BEB050B5CEB060C4EEB070E91E85D
:10200000E001A9FB0502AAFB0543E9FB6624EAFB04
:102010006634A9FB0765E9FB6845B1E80003EBFB03
:102020006836ECFB6846EEFB6856ABFB0987ECFBB9
:102030006957EEFB696791E80202EAFB6148EBFB36
:102040006158ECFB6168EEFB61784FF00001EAFB40
:102050000951EBFB6961ECFB6971EEFB69814FF49F
:10206000A03C4FEA154949EA06495FF0000AE9FB3E
:102070000C0A4FEA164646EA0746E6FB6C2A4FEA88
:10208000174747EA0847E7FB6C3A4FEA184848EA1F
:102090000148E8FB6C4AADB25544AF0805F00305B2
:1020A00007EB8707C01952F1000153F1000254F108
:1020B000000345F1000420BC1FC5BDE8F08F00BF40
:1020C00030B490E83C10511D53F1000154F100016F
:1020D00055F100014CF100014FEA9101494201F034
:1020E0000501521853F1000354F1000455F10005A5
:1020F0004CF1000C0CF0030C80E83C1030BC704735
:102100002DE9F04F90E8F00F00F140004FF0040E81
:1021100059E0F0B4826BC36B046805252426875907
:102120003C444FEA724787EAF24787EA92273C44E9
:1021300042684FEAF21787EAB24787EAD2073C447F
:1021400040F8044B032D08BF6FF01B0687593A4433
:102150004FEA734787EAF34787EA93273A4443688D
:102160004FEAF31787EAB34787EAD3073A4440F8C0
:10217000042B87593B444FEA744787EAF44787EAC0
:1021800094273B4444684FEAF41787EAB44787EA48
:10219000D4073B4440F8043B013DC0D1A0F13C00D2
:1021A000076A3C444FEA724787EAF24787EA922778
:1021B0003C4402684FEAF21787EAB24787EAD2073F
:1021C0003C44C463F0BC4FF0020288EA781C8CEAFD
:1021D000F84C0BEBBC1C8AEA090303EA080383EA08
:1021E0000A039C4450F8043B9C4451F8043B9C4433
:1021F000674444EA050B0BEA060B04EA05034BEAC5
:10220000030BE34484EAF42383EA34530BEBB30B6C
:1022100087EA771C8CEAF74C0AEBBC1C89EA0803B6
:1022200003EA070383EA09039C4450F8043B9C44F7
:1022300051F8043B9C4466444BEA040A0AEA050A46
:102240000BEA04034AEA030AE2448BEAFB2383EA2B
:102250003B530AEBB30A86EA761C8CEAF64C09EB90
:10226000BC1C88EA070303EA060383EA08039C44CC
:1022700050F8043B9C4451F8043B9C4465444AEAB2
:102280000B0909EA04090AEA0B0349EA0309E144D4
:102290008AEAFA2383EA3A5309EBB30985EA751C03
:1022A0008CEAF54C08EBBC1C87EA060303EA05033D
:1022B00083EA07039C4450F8043B9C4451F8043BD8
:1022C0009C44644449EA0A0808EA0B0809EA0A033C
:1022D00048EA0308E04489EAF92383EA395308EB22
:1022E000B30884EA741C8CEAF44C07EBBC1C86EA45
:1022F000050303EA040383EA06039C4450F8043B05
:102300009C4451F8043B9C44E34448EA090707EA2B
:102310000A0708EA090347EA0307674488EAF8233B
:1023200083EA385307EBB3078BEA7B1C8CEAFB4C40
:1023300006EBBC1C85EA040303EA0B0383EA0503EE
:102340009C4450F8043B9C4451F8043B9C44E244B8
:1023500047EA080606EA090607EA080346EA03060A
:10236000664487EAF72383EA375306EBB3068AEA23
:102370007A1C8CEAFA4C05EBBC1C84EA0B0303EADA
:102380000A0383EA04039C4450F8043B9C4451F83C
:10239000043B9C44E14446EA070505EA080506EAD1
:1023A000070345EA0305654486EAF62383EA3653C4
:1023B00005EBB30589EA791C8CEAF94C04EBBC1CEB
:1023C0008BEA0A0303EA090383EA0B039C4450F8EF
:1023D000043B9C4451F8043B9C44E04445EA060419
:1023E00004EA070405EA060344EA0304644485EAB0
:1023F000F52383EA355304EBB304013A7FF4E5AEE9
:10240000A0F14000BEF1010E7FF483AEA0F1400CBC
:102410009CE80F00001949199219DB19ACE80F006C
:102420009CE80F004044494452445B44ACE80F0030
:10243000BDE8F08F2DE9F04FB0E8FE0783B02DE93D
:10244000010790E8005F4FF00A0006900198DB1941
:102450009CEA030C18EB3C4897EA080713EB375348
:1024600093EA3C4C18EB3C6898EA375724189EEAEC
:10247000040E19EB3E4990EA090014EB305494EA3B
:102480003E4E19EB3E6999EA3050CDE90489DDE909
:10249000028949199AEA010A18EB3A4895EA0805AF
:1024A00011EB355191EA3A4A18EB3A6898EA3555FA
:1024B00092199BEA020B19EB3B4996EA090612EBCB
:1024C000365292EA3B4B19EB3B6999EA365613EBCD
:1024D000706393EA3B6B18EB3B4898EA706013EB30
:1024E000305393EA3B4B5FEA3B6B18EB0B0898EADF
:1024F00030505FEA706014EB756494EA3C6C19EB41
:102500003C4999EA756514EB355494EA3C4C5FEA12
:102510003C6C19EB0C0999EA35555FEA7565CDE914
:102520000289DDE9048911EB766191EA3E6E18EBD0
:102530003E4898EA766611EB365191EA3E4E5FEAE4
:102540003E6E18EB0E0898EA36565FEA766612EB96
:10255000776292EA3A6A19EB3A4999EA776712EB9D
:10256000375292EA3A4A5FEA3A6A19EB0A0999EA5B
:1025700037575FEA77670190069801387FF465AFB7
:1025800001BC80E8005FBDE8000700E9FE0703B07A
:10259000BDE8F08F014B1B685B6818470000002006
:1025A000014B1B689B68184700000020014B1B680B
:1025B0001B69184700000020014B1B685B69184726
:1025C00000000020014B1B689B6918470000002099
:1025D000014B1B68DB69184700000020014B1B689A
:1025E0001B6A184700000020014B1B68DB6A184774
:1025F00000000020014B1B685B6B184700000020A7
:10260000014B1B681B6C18470000002010B4034CE2
:102610002468E468A44610BC604700BF00000020A6
:10262000014B1878704700BF580E0020042810B5E1
:1026300011D883B104280CBF10242824A1420AD247
:10264000064C54F8200018B141568A42A8BF0A46E9
:102650001A70002010BD6FF01500FBE78009002004
:1026600030B50346114890F91C209A4219DD90F9C3
:1026700024209A4217DA9A1A846AA05C0C4A1556EA
:102680009D420DD00E32002918BF01309442C0B2D5
:1026900006D129B1013BDBB2012B01D80130C0B218
:1026A00030BD0D20FCE70020FAE700BF80090020C4
:1026B000B8EE060008B5054B93F91C30984203DAD2
:1026C000FFF7CEFF024B1B56184608BD80090020BD
:1026D000B8EE060010B51C4C94F82C3073B90123E9
:1026E00084F82C3002F01AFF48B1184BA362D823AB
:1026F000236284F824300823A361237710BD02F0FD
:1027000023FF0028F1D102F029FF0028EDD102F0CB
:10271000E7FE38B10E4BA362D823236284F824303D
:102720000423E9E702F0E6FE0028F3D102F0ECFE14
:102730000028EFD102F0FCFE0028EBD14FF4DF714E
:10274000742002F06DFD00BF80090020F3EE06004A
:10275000C6EE06004FF08042012353600023C2F80A
:102760000031014A13707047AD090020014B01226E
:102770001A707047AD0900204FF08043D3F8003144
:1027800023B9034B187800F0010070470120FAE7E5
:10279000AD09002070B50A4D012604462E70FFF7E2
:1027A000EBFF30B94FF080436E706C60C3F8046388
:1027B00070BD002CFCD0A04700236B60F8E700BF81
:1027C000B0090020024B00221A705A705A607047FC
:1027D000B009002010B5034C208100F0CBFC6081D3
:1027E00010BD00BFB0090020014B5889704700BFE1
:1027F000B009002010B5EFF3108472B6064A937B3F
:102800000133DBB29373937B012B01D103F0A7FA61
:1028100004B962B610BD00BFB009002038B5FFF79B
:10282000E9FFFFF7A9FF094C4FF0804540B103F0E5
:10283000C0FA01232B610423E3730023237438BD02
:102840000323E3730123C5F80433F6E7B00900203E
:1028500010B5EFF3108472B6094A937B23B94FF495
:10286000F8716D2002F0DCFC937B013BDBB29373CB
:10287000937B0BB9FFF76EFF04B962B610BD00BFC2
:10288000B009002073B51B4D6B7C63B9E86900F09B
:10289000030003F07EFA30B1EFF3108372B6EA7BE7
:1028A0001AB103B962B602B070BD0122EA7303B96E
:1028B00062B64FF080430822C3F808234FF4207318
:1028C000ADF80630BDF80640A4B2631E9BB2ADF869
:1028D0000630002CF6D14FF080460748C6F80C4170
:1028E00003F0EEFB85F82140FFF798FF0823C6F8B8
:1028F0000433D8E7B0090020D00900202DE9F041C9
:10290000384C94F82230002B69D04FF08043D3F834
:102910000071D3F8046157B10122C3F8082363782A
:102920002BB16368002565700BB1984765604EB1A7
:102930004FF080430022C3F804210222C3F8082389
:10294000FFF7A0FF4FF080462748D6F80C8194F897
:102950002150EDB203F0B8FB20B14FF423716D208C
:1029600002F05EFC47B1E37B032B05D10423E37344
:1029700003F01FFA01233361B8F1000F16D04FF0B6
:1029800080430022C3F80C21E37B042B02D040F2E9
:10299000AA21E4E702F0ECFDC0B14FF08043002231
:1029A000C3F8342C0223E373FFF752FF4DB1002329
:1029B00084F82130E37B022B01D1FFF72FFFFFF7D3
:1029C00047FFBDE8F041084803F08DBB02F0B0FDC1
:1029D0000028E2D102F0C2FD0028DED1E2E7BDE826
:1029E000F08100BFB0090020D009002010B5044CD0
:1029F000E06900F0030003F0CCF90028F8D010BD26
:102A0000B0090020F8B5054650B10278042A07D86D
:102A1000437842B9013B1F2B02D88378212B07D979
:102A20006FF0150077E0002BFAD18378002BF7D1F7
:102A3000814B0127C3F88070BFF34F8FBFF36F8FB7
:102A40004FF08046C3F880717C4C4FF0FF33C6F8DE
:102A500008330023C6F80031C6F80431C6F80C313B
:102A6000A373AB88A38103F07FF908B12770A77324
:102A7000D6F80C24D6F80C34D20303D5DF0701D5E1
:102A8000FFF774FE4FF4AF60FFF7A4FE2B78A97830
:102A900063740022E261A1742274042B4ED8DFE833
:102AA00003F005033B494B000123E36103F063F9A5
:102AB00000284ED003F066F9E36903F0030398425F
:102AC00047D1AB79002B3ED1FFF790FFA37C6BB1D0
:102AD0002B785BB9FFF750FE054602F057FC6FF00C
:102AE0000043002D00F0A580C4E905034FF08043AA
:102AF000D3F80C24D3F80C34D20303D5DB0701D56B
:102B0000FFF734FE4C4A01230020E07384F82230A2
:102B1000C2F880311360F8BDFFF76CFE4FF08043C0
:102B2000D3F80C14D3F80C24CE03F9D5D007F7D57D
:102B30000223BAE7424BB8E7424BB6E74FF47F7146
:102B40006D2002F06DFB4FF080430222C3F8042396
:102B5000BCE74FF080430122DA600022C3F8042171
:102B6000E269C3F8182502F0BBFC10B34FF08053A4
:102B70004FF08042D3F84432C3F34233C2F83C35BD
:102B800002F0AEFC10B34FF080430122C3F84C2595
:102B90004FF0804301229A600222C3F80423AA79ED
:102BA000002A93D1D3F8042391071CD440F2B33107
:102BB000C6E702F09FFC0028D8D102F0A5FC00284F
:102BC000D4D102F0B5FC0028D0D1D9E702F092FCB4
:102BD0000028D8D102F098FC0028D4D102F0A8FC3B
:102BE0000028D0D1D4E7184A1669116941F01001C4
:102BF0001161D3F8043106F010060BB903F080FA26
:102C00004FF08047D7F8043183B1FFF7EFFE26B9C4
:102C10000D4A136923F0100313614FF08043022221
:102C2000C3F808230022C3F804214FE703F066FA33
:102C3000E8E7C4E9053059E700E100E0B009002009
:102C4000010002000100030000ED00E0064B1A78CD
:102C500010B5044632B901221A70FFF7CBFD2046A9
:102C6000FFF798FD002010BDD309002010B5054CDA
:102C700023782BB1FFF7A6FD00232370FFF7E8FDB3
:102C8000002010BDD3090020034610B3007888B996
:102C90001A79012A1ED85A79012A1BD89A680E4936
:102CA000643A8A4216D8D8680C4B98422CBF002050
:102CB0000120704701280CD11A79012A09D85A79C4
:102CC000012A06D8DA680449643A8A4201D8986829
:102CD000EAE70020704700BF3C8601000040420F39
:102CE00010B5054C236813B1984700232360BDE855
:102CF000104001F05FBB00BFD409002038B5044686
:102D000020B94FF4D5716A2002F08AFA90F8285061
:102D1000072900F2EC80DFE801F004464676808A5D
:102D2000A39190F82630033B012B02D940F2B51154
:102D3000E9E7052390F8241080F82630002380F876
:102D4000293061BB714B0122C3F84015C3F8401113
:102D5000C3F84415C3F84411C3F84815C3F8481123
:102D6000C3F84C15C3F84C11DA6003F060F823780F
:102D7000012B0FD101F0ACFCC4E90601236A00214C
:102D8000284698470146204603F068F8022840F09C
:102D9000B18038BDD4E90423C4E90623EEE7BDE8D9
:102DA0003840FFF79DBF90F82630DA1E012A02D97D
:102DB0004FF4EB71A7E790F824202AB1214628466A
:102DC000BDE8384003F019B8042B0CBF02230123DF
:102DD000012980F82630036A0AD105212846984740
:102DE0000028D6D00378002BD3D040F2EB118AE72D
:102DF0000621284698470028CBD00378002BC8D05E
:102E00004FF4F8717FE790F82630052B02D040F29E
:102E1000F71178E7036A0221B2E790F82630052B14
:102E200002D040F2FD116EE7036A0121A8E790F895
:102E30002630052BB3D040F2032164E790F826300A
:102E4000052B02D04FF402715DE7036A0A21284680
:102E500098470146204603F001F840F20B2152E763
:102E600090F82630052B07D090F825200AB1032BC7
:102E700002D040F20F2146E794F82420002A9DD189
:102E800094F8293093B1022384F8263084F829205D
:102E9000236A08212846984700283FF47AAF037830
:102EA000002B3FF476AF40F21B212CE794F825204D
:102EB00062B194F8270084F82530214601F016FC11
:102EC00000287FF466AF4FF408711CE7022384F8F2
:102ED00026300721236A2846984700283FF459AF37
:102EE0000378002B3FF455AF40F227210BE74FF456
:102EF0000B7108E720B1012805D1236A04213FE7BF
:102F0000236A03213CE740F23D21FCE600800040BB
:102F10002DE9F8438846074680B300F037F84FF0B4
:102F2000000905465FFA89F6AE420AD2304600F043
:102F300033F890F8264009F10109002CF2D1FF2E58
:102F400003D16FF00B00BDE8F883304600F024F8A1
:102F50000546848480F8264080F8286001460A48A7
:102F600001F070FB202885F827000AD001232F628A
:102F700085F82630204688F80060E4E76FF01500F9
:102F8000E1E76FF02200DEE7FD2C0000014B18792D
:102F9000704700BFD8090020054B1A79824283BFD1
:102FA0001B6800EB400003EB00100020704700BFDF
:102FB000D809002010B510F003040A460BD10749C8
:102FC0000A71086030B102EB42021201214602F0A0
:102FD0001FFB204610BD6FF00D00FBE7D809002055
:102FE00043F60952C0F3080302FB03F3400A03F55A
:102FF000807302FB00F000EB5320704743F6095C3E
:10300000C0F3080210B50CFB02F2C0F34E24030E0D
:1030100043EA01230CFB04F0090E02F580724FEA2B
:10302000411C00EB52205A01B2EB030E4CEAD36C68
:103030006CEB01044FEA841C4FEA8E12B2EB0E02D5
:103040004CEA9E6C6CEB040C4FEACC0C4CEA527CC4
:10305000D200D31841EB0C01DA03C903801841EA0E
:10306000534141F1000110BD430B48F2376C0CFB9A
:1030700003F34FEA134C00B5104B43F6095E0EFB09
:103080001C0000FB03F35B0D0EFB03FE03EB4C2364
:103090000EF5745C0CF1080CB0EB5C2F08D80EF543
:1030A000807EA0EB5E20C0B20B6010705DF804FB68
:1030B000013300200B6010705DF804FB6F0C010001
:1030C000F8B5274DA94246D8264E274F450F45EA69
:1030D000C105A6FB0514C0F34F31A40B01EB05415C
:1030E00007FB1411A6FB0151890B41EA04411F4C57
:1030F00004FB110448F2376C600B0CFB00F04FEA44
:10310000104C43F6095E1A480EFB1C4505FB00F007
:10311000400D0EFB00FE00EB4C200EF5745C0CF134
:10312000080CB5EB5C2F12D80EF5807EA5EB5E2E59
:103130005FFA8EFE069D85F800E00D0628184FEA1E
:10314000112141F10001186059601460F8BD01308F
:103150004FF0000EEEE796219B2002F061F800BFD1
:10316000FF7F841E83DE1B43000024F40080841E46
:103170006F0C0100420B48F2376303FB02F2120CA2
:1031800043F6095C074B0CFB120101FB0333013BC7
:103190005B0D0CFB03FC5002B1EB5C2F88BF0130D0
:1031A000184470476F0C010010B5094A92F80033BB
:1031B000202B03D13E21022002F032F818214B438C
:1031C000D018BDE81040D35840680321184700BF0D
:1031D000E00900200C4B0D491B78012B14BF4FF464
:1031E000E0224FF4C022C1F8482318BF0023C1F8E1
:1031F0000823074A99000A440021012B42F8041BC6
:1032000000D170470123F8E7180D002000B00040FE
:1032100040B1004070B5EFF3108472B6094A0A4B12
:103220000025D2F80415D2F804612EB15968013195
:103230005960C2F80451F4E75B6804B962B6C0E9AA
:10324000001370BD00B00040180D0020094BD3F8EA
:103250000435C01A20F07F4323F001033BB120F076
:103260007F40B0F5000F8CBF022000207047012086
:10327000704700BF00B0004008B5124BD3F80425DA
:1032800022F00302C3F80425D3F8082542F0030214
:10329000C3F80825102292FAA2F2B2FA82F2092AA1
:1032A00004DD094840F2913101F0B0FFC3F8102568
:1032B0000122DA60054B4FF48072C3F880211A6056
:1032C00008BD00BF008000406770070000E100E01B
:1032D000114B4FF40062C3F88020BFF34F8FBFF350
:1032E0006F8FC3F880210D4B01225A609A60D3F88A
:1032F0000425002AFBD10A49C3F808134FF4E02142
:10330000C3F84813C3F84021C3F84421C3F8482147
:10331000C3F80421704700BF00E100E000B00040A6
:10332000020007000D4B4FF48072C3F88020BFF3FA
:103330004F8FBFF36F8FC3F88021094B01214FF0EE
:10334000FF325960C3F808230022C3F84025C3F8B0
:1033500040211961034B1A72704700BF00E100E081
:1033600000800040180D00202448FF2310B54FF0C6
:10337000FF32002443724FF0FF33C0E9042304708E
:103380004460FFF7CFFFFFF7A3FF1D4A1D4BC2F8B4
:1033900000424FF40061196080691B4930B9012374
:1033A0000B60194B0222C3F8042310BD174B184CB5
:1033B000C3F8A845C3F8AC05C3F85C194FF4002165
:1033C000C3F804150521C2F8401501211160D2F897
:1033D00040110029FBD04FF40021C3F8081501214A
:1033E0005160D1600021C2F84011C2F84015C3F805
:1033F000A815C3F8AC15C3F8AC15D2E7180D00201A
:103400000080004000E100E000B0004000F001401A
:1034100040810040014BD3E904017047180D0020A2
:10342000014BD3F80405704700B0004013B568465F
:10343000FFF7F0FEDDE90004FFF7D2FD024B0021AB
:10344000E4FB030102B010BD0080841EB1F1FF3F18
:1034500008BFB0F1FF3F2DE9F041404C05460E4654
:1034600038D13F4DD5F800317BB33E4E3E4BC6F8C8
:1034700008354FF00008FFF7ADFE84F80980FFF72C
:1034800051FFFFF7F9FE394BC5F80081384FC6F8F8
:10349000A8354FF40023C6F8AC75C6F8043502F021
:1034A00001FED5F800312BB10123C5F800817B6006
:1034B000FB60F4E7013041F100010223C4E904019B
:1034C0002370FF236370BDE8F08102F0EBFDC51CA3
:1034D00041F10006D4E90473B34208BFAF42F2D011
:1034E000204B214AC3F80825FFF774FE1C4A4FF40D
:1034F000803125F07F480023C2F808134046C2F807
:103500004813C2F84031FFF7A1FE20B14FF43F71DC
:103510006C2001F085FEC2F84085C2F84413237880
:10352000012B06D127F07F473846FFF78FFE012891
:10353000FAD000236372FFF7F5FEFFF79DFE094AFC
:1035400001234FF000412370C2F804150422627079
:10355000034AC4E90456C2F84833B4E7180D002002
:1035600000B0004000F001400000088000B10040C1
:103570000080004037B540B1041FE4B2022C13D9DB
:1035800040F295316C2001F04BFE214B4FF480321C
:10359000C3F80823C3F84005C3F84001D3F840310D
:1035A0000093009B03B030BD1A4D2B7893B16A781D
:1035B00082420FD1184A1949C2F80815012B01D1CE
:1035C000FFF7B0FE00232B704FF0FF324FF0FF33B8
:1035D000C5E90423124A4FF48033A340C2F80833EC
:1035E000C2F8483304F5A87352F82300FFF72EFE03
:1035F000012818BF0B4B22B24FEA84041CBF0021E4
:103600001951084B53F822300193019BCAE700BFC0
:1036100000800040180D002000F0014000000880EC
:1036200000B0004040B1004070B52C4B30B1041FD9
:10363000E4B2022C2AD94FF454710BE0D3E904010F
:10364000B1F1FF3F08BFB0F1FF3F06D11B7A23B9AC
:103650004FF44A716C2001F0E3FD12B94FF44B7145
:10366000F8E71F4B4FF480310120C3F80413C3F86F
:1036700040255864D3F8441500248A42C3F84445D1
:1036800003D82046FFF776FF204670BD197829B190
:103690005B78834202D14FF45371DBE7114B124E3A
:1036A00022F07F41A20013444FF48035A540002250
:1036B000C6F808530846C6F848531A60FFF7C6FD17
:1036C00048B904F5A874012046F82410C6F804533C
:1036D000C6F84453D9E71046D7E700BF180D0020BD
:1036E0000080004040B1004000B0004008B5FFF746
:1036F00071FD054B4FF0FF32C3F808230022C3F8D9
:103700004025C3F8402108BD0080004008B50122D3
:10371000084B10B1C3F8442308BDC3F84823FFF792
:1037200001FE054B4FF0FF3118704FF0FF30C3E939
:103730000401F1E700B00040180D0020F8B5164D67
:10374000164E00244FF48037D5F8043307FA04F2FC
:103750001A4212D056F824307BB1002346F82430A8
:1037600004F5A87355F82300FFF770FD28B1201D5C
:10377000C5F80823C0B201F01BFA0134032CE3D1D1
:10378000054BD3F8042132B10022C3F80421044AC6
:10379000536801335360F8BD00B0004040B10040B1
:1037A000180D002010B51C4C637AFF2B2DD0237808
:1037B00083B10122022B227221D1184B4FF4002237
:1037C000C3F80825002323704FF0FF324FF0FF337A
:1037D000C4E90423124BD3F80423D2031BD5D3F836
:1037E0004021C2B14FF480320020C3F80823C3F84F
:1037F0004001FF236372BDE8104001F0D9B90223F4
:1038000060782370FFF7B6FEE4E7054BD3F8043386
:103810000BB10720EFE710BD180D002000F00140AC
:10382000008000402DE9F04F93B01C460492CDE992
:103830000201FFF7EFFD182301910646B849082061
:1038400004EB440213FB0404631801EBC2020832C8
:1038500065581F7BD3F8048093F80D9005970FCA25
:103860000CAC25F07F4A84E80F005046FFF7B8FB08
:10387000AC4B7C1C9842044400F288819C4200F3CB
:103880009380002C55DBFEF777FFB9F1010F8346DB
:1038900008D0A54FD7E90223B3F1FF3F08BFB2F12B
:1038A000FF3F4BD002F09CFA019B0690B3F1FF3F23
:1038B00008BFB6F1FF3F03D0B54278EB030378D2DF
:1038C000029B0322EB1A934269DBBBF1000F00F06D
:1038D000E88000230793029BB5EB030B039B68EB87
:1038E000030702F07DFA0930C217834577EB020324
:1038F00080F0DB80049B012B00F0E180079B002B14
:103900005AD1019BB3F1FF3F08BFB6F1FF3F53D03F
:10391000721B63EB0803042A73F1000180F2288113
:10392000012A73F100033ADADDF81CB026F07F4A71
:1039300052E004F1F45404F59024A4E70028B1D136
:1039400002F04EFA019B0690B3F1FF3F08BFB6F1BB
:10395000FF3F00F0A380B54278EB0303C0F09E80E8
:103960003B7C002B069B14BF00221A463346EB1A01
:103970009A4214DC01230793D7E90232B2F1FF3FE8
:1039800008BFB3F1FF3FA6D00699EB1A68EB02021D
:103990008B4272F100039ED2B9F1010F9BD000243B
:1039A000204613B0BDE8F08F04F1614404F5F7043C
:1039B00069E73346002285E728464146FFF746FD82
:1039C0004FF0000BB8F1FF3F08BFB5F1FF3F00F02B
:1039D000E2802E46CDF804805046FFF701FB534BA2
:1039E000221A9A420DD3001B98427CD34D4B9A4227
:1039F00000F2B380984240F2D880C0F1614202F5F3
:103A0000F702D3170020FFF70FFE04460028C6D0A8
:103A1000454FB9F1010FD7E9022366D0BBF1000F82
:103A200040F08880B3F1FF3F08BFB2F1FF3F00F0E4
:103A3000A6800120FFF76AFE3B7C002B40F09280BD
:103A40006A1E68F100030620FFF7EEFD002842D051
:103A5000B9694FF0804200230B60C2F80835059B1E
:103A60008DF83C3000238DF8403008934FF0FF3242
:103A70004FF0FF33CDE90C58CDE90A238DF83D9086
:103A800008AE0FCE2A4D0FC50FCE0FC596E8030026
:103A900085E80300204613B0BDE8F08F029BC21CEE
:103AA00065E7214FCDF81CB066E7B9F1010B284658
:103AB000414618BF4FF0010BFFF7C8FC82E7019B9E
:103AC000B3F1FF3F08BFB6F1FF3F73D026F07F4A46
:103AD0004FF0000B80E7BA694FF080410123C1F835
:103AE00008351360BBE742428BE7B3F1FF3F08BFE5
:103AF000B2F1FF3F24D1BBF1000F9DD0069BF21A1B
:103B0000019B4FF0050063F10003FFF78DFD0028D6
:103B100046D03B7C002B93D101233B7490E700BF40
:103B2000E0090020FF7F841E380D00200040420F76
:103B3000E80C0020B3F1FF3F08BFB2F1FF3FDDD03A
:103B400002F04CF94FF0FF324FF0FF33C7E9022388
:103B5000BBF1000F3FF470AFD0E702F1F45202F571
:103B600090224EE70520FFF705FD00233B7467E731
:103B700028464146DDF81CB0FFF768FC22E702F05A
:103B80002BF902F08FFAC7E9020152E740F20F4128
:103B9000702001F045FB40F21B71702001F040FBEA
:103BA00040F22121702001F03BFB40F2D4717020E3
:103BB00001F036FB40F27F61702001F031FB00BF65
:103BC0002DE9F04F8D4F7C7C04EB44033B4483B0E4
:103BD0005D78202D48D08A4BE6B26400002B00F0BF
:103BE0008980884BDFF82092002B5FD005EB4612CE
:103BF00007EB420A4FEA46189AF81C30013BDBB249
:103C0000052B34D8814A12F803B0BBF1080F2ED02F
:103C1000AFF30080EFF3108372B634443C449AF85B
:103C20001D206270A278AA4204BF2022A27013B99C
:103C3000AFF3008062B6A84405EB450509EBC50269
:103C400007EB4808506859F835300122594688F882
:103C50001C2098477C7C04EB44033B44E6B25D782F
:103C6000202D4FEA4404C1D103B0BDE8F08F40F2EB
:103C70004A61702001F0D4FA62B6A84405EB45050C
:103C800009EBC50207EB4808506859F835300122A6
:103C9000594688F81C2098477C7C04EB44033B443D
:103CA000E6B25D78202D4FEA4404DDD005EB4612E4
:103CB00007EB420A4FEA46189AF81C30013BDBB288
:103CC000052BD4D8514A12F803B0BBF1080FCED05F
:103CD000AFF30080EFF3108372B634443C449AF89B
:103CE0001D206270A278954204BF2022A270002B92
:103CF000C3D1C1E7434BDFF814B1DFF80CA14FF09B
:103D00002009002B4FD005EB461207EB42024FEA89
:103D10004618137F013BDBB2052BA8D81BF8031014
:103D20000829A4D0EFF3108372B634443C44527F88
:103D30006270A278954208BF84F80290002B52D09E
:103D4000A84407EB480805EB45050AEBC5025AF8FD
:103D500035305068012288F81C2098477C7C04EBA1
:103D600044033B44E6B25D78202D4FEA4404CAD1B7
:103D70007AE762B6A84405EB45050AEBC50207EBF6
:103D8000480850685AF83530012288F81C209847B6
:103D90007C7C04EB44033B44E6B25D78202D4FEA83
:103DA00044043FF461AF05EB461207EB42024FEAD1
:103DB0004618137F013BDBB2052B3FF658AF1BF8CB
:103DC000031008293FF453AFEFF3108372B6344465
:103DD0003C44527F6270A278954208BF84F80290FA
:103DE000002BC7D1C5E70191AFF3008062B6A844AC
:103DF000019905EB450507EB4808A6E7380D0020BB
:103E00000000000000000000E009002024EF060090
:103E10002DE9F04F85B0DFF80C81019301EB4103F0
:103E20004FF0200C18F8034003916445924682F845
:103E300000C073D04B01DFF8F09006469B4610E0BF
:103E4000727B012A02D0427D012A57D00BEB04037A
:103E500008EB43038AF800405B7F202BA4465DD02B
:103E60001C4604EB440009EBC000D0E9032387683B
:103E70003568716813EB070E42F10002754571EB6E
:103E800002024FEA4403DBD21D46019B83F800C0C7
:103E9000039B4FEA431B281909EBC0003768B3683E
:103EA000D0F808A07268C168DB1942F100029A4597
:103EB00071EB020310D3437D012B02D0737B012BE6
:103EC00003D0012005B0BDE8F08F01F089FFAAEB17
:103ED000070701308742F4DA019A254409EBC5054A
:103EE0001470A97DB27B0BEB0403914208EB4303F2
:103EF00010D95C7F202CE4D06500CCE7029301F060
:103F00006FFFED1B01308542A0DA029B9AF800C0DA
:103F10001D46BAE7002005B0BDE8F08F019B1C707C
:103F2000CFE700BF380D0020E00900202DE9F04F59
:103F300083B00C4615461E469DF83070FFF71AF9FF
:103F400022686368451946F10006954276EB030343
:103F500042D3DFF88C8005E05D4576EB09033BD367
:103F6000C4E900B90DF107030DF1060239462046F8
:103F7000FFF74EFF88BB9DF8073003EB430308EBC8
:103F8000C303D3E902A01A691AF1030B40F1000040
:103F900012EB0B0B627B40F10009012ADCD05B7D48
:103FA000012BD9D101F01CFFABEB0A030130834296
:103FB000D2DA9DF8073003EB430308EBC303D3E9E0
:103FC00002B901F00DFF013010EB0B0B49EBE0796A
:103FD0005D4576EB0903C3D2002003B0BDE8F08F46
:103FE000E00900202DE9F04715461C4612782F7A8B
:103FF00095F809C088B00023E360C4E90033A773D3
:104000009DF8408084F80DC00646A360E2730F4619
:10401000002A3AD1FEF7F2FFD5E9042C3C4BC31835
:1040200041F1000E9A427CEB0E030AD3013E47F1A8
:10403000FF37C4E900674FF47A73A36008B0BDE8A6
:10404000F087263041F1000182427CEB0103EDD381
:10405000501E04F10C036CF10001009304AA06AB9E
:10406000FFF72EF8049B686802330DF10F0205A9D3
:104070001844FEF7F9FFDDE9053207999B1A23F092
:104080007F43C4E90021A360D8E7224804F10C0271
:1040900006A9FEF7E9FF204B1B78202B24D01F49EF
:1040A0000B69D1E90521083342F1000A13EB01093C
:1040B0004AF1000A6B68207B1844023005AA04F11B
:1040C0000801C4E9009AFEF7CFFF2869CDF8008007
:1040D00032463B462146FFF729FF0028AED1C4E90E
:1040E000006708B0BDE8F087637B16F1080947F167
:1040F000000A012BDED0FEF73FFB0028DAD101F0E9
:104100006FFE10EB090399464AF1000AD2E700BF9F
:104110000040420FFF7F841EE00C0020E80C0020CE
:104120002DE9F04700EB4003344DDFF8D480EC5C20
:1041300006464700FFF774F94FF0200C4FEA461E81
:1041400004EB440108EBC1010EEB0403D1F808A015
:104150000A69AAEB000929F07F49B9F5000F05EBC0
:1041600043030DD812EB0A02121A22F07F42B2F575
:10417000000F05D8BCF1200F0AD12046BDE8F0871A
:104180005B7F202BA4461C46DAD1BCF1200FF4D073
:104190000CEB4613BA1905EB430315F802805B7F5D
:1041A000AB54710144464FF0040E0B1905EB430369
:1041B00022469445204683F81CE05C7FF5D1BB196C
:1041C0002B440A4493F802E0BEF1200F5FFA8EFC04
:1041D00018BF8C443E4418BF05EB4C0C05EB420263
:1041E000354408BF83F801804FF0200318BF8CF8D6
:1041F0001D80A87053772046BDE8F087380D002059
:10420000E00900202DE9F04101EB41034A4DEE5C4D
:10421000202E82B00C4680464FEA410740D1474BE2
:104220000BB1AFF3008001F03DFFAB7C0191202B7F
:104230000AD0434BD3E904E210F1020C41F1000330
:10424000E64572EB030330D3202E0AD042463346B4
:10425000FFF7E8FA00283DD00220AE7402B0BDE8B6
:10426000F081D5E90223B3F1FF3F08BFB2F1FF3F70
:104270001FD12B7C43BB0420FFF77CF9FFF736FAF4
:104280000020FFF743FAA9694FF080422020A8746C
:10429000002301200B60C2F8083502B0BDE8F081B0
:1042A0000846FFF73DFF8642B9D0002002B0BDE8C6
:1042B000F08101F093FD4FF0FF334FF0FF32C5E97D
:1042C00002232B7C002BD6D00520FFF753F90023C7
:1042D0002B74D0E73A1906EB441305EB430315F8AA
:1042E00002C05B7FAB5461016246042013468A180A
:1042F00005EB42029E421077527FF7D13A192A44C9
:104300003C449678F0B2202E18BF4018194418BFCC
:1043100005EB400005EB4101254418BF80F81DC0A6
:10432000AB704FF000004FF0200308BF82F801C0CF
:104330004B7702B0BDE8F081380D0020000000008E
:10434000E80C002038B5164A164D4FF0FF304FF0FC
:10435000FF310023C2E90201C5E90201202142F236
:104360002000A970136082F82030A9741C462880B0
:104370006B742B7405F11C0202F814300134202CEC
:10438000FAD1094801F040F8084B094A1C70107036
:1043900001F0FAF8A861FEF7E7FF0123EB7438BDDE
:1043A000E80C0020380D0020C13B0000E00C00208C
:1043B000100D00202DE9F04F83B001F073FEDFF8FF
:1043C000688206460C46FFF791F94FF0FF334FF035
:1043D000FF32C8E9022398F82030D3B9D8F810305A
:1043E000D8F81820D8F814109048023341F1000191
:1043F0009B1802F5DF62A0FB02024FEA922241F114
:1044000000019B1841F100019E4274EB010380F012
:10441000FB804FF0FF304FF0FF31FFF717F8844A71
:1044200092F800B0BBF1200F00F0E980814D20230D
:104430001370AB746B7C0022C8F8002003EB4302BE
:104440005FFA83F9AF5C5B00202F00930AD0DFF89E
:10445000E8A107EB47030AEBC3037A00D97D0129E2
:1044600000F0A880009BDFF8D4A103EB09062E44DE
:104470004FEA49173478202C04D04846FFF750FE05
:104480008442F7D1BAF1000F01D0AFF3008001F000
:1044900009FEAB7C202B09D0D8E9042310F1020ED1
:1044A00041F1000C724573EB0C03E3D3202C34D0A4
:1044B00023460122FFF7B6F9002852D0AC7407EB6F
:1044C0000B0305EB43031A7F022A1BD1009A4A44CF
:1044D0002A44062119779178CBB220291CBFDB1919
:1044E00005EB43035F4418BF83F81DB0009B08BF72
:1044F00082F801B04B442B4405EB470783F802B028
:1045000020237B77FF23AB71009B4B441D446B78CA
:10451000202B60D103B0BDE8F08FD5E90223B3F1C1
:10452000FF3F08BFB2F1FF3F07D001F057FC4FF04B
:10453000FF324FF0FF33C5E902232B7CA3BB0420DD
:10454000FFF718F8FFF7D2F80020FFF7DFF8A969A6
:104550004FF0804200232020A8740B60C2F8083579
:10456000ADE73B1905EB430330785B7F33700246C0
:1045700004211346BA1805EB42029C421177527F80
:10458000F7D1B178B370CAB220291CBFD21905EB9C
:1045900042023B4405EB430318BF50774FF0200223
:1045A00008BF70705A7765E70520FEF7E3FF002328
:1045B0002B74C4E75B7D012B14D1033644F1000456
:1045C00017440AEBC70ADAE90223B242A34128BF23
:1045D000CAE9026446E71A4B187803B0BDE8F04F09
:1045E00000F02EBF0192FEF7C7F8019A0028E4D12F
:1045F00001F0F6FB8619019A44F10004E0E740F26D
:10460000B121702000F00CFE094B0B4A1B781821D9
:1046100001FB03F3D01807214068D358984740F2B4
:10462000A621702000F0FCFDE80C00209300DC9235
:10463000E00C0020380D0020E00900200000000000
:10464000100D002038B50C46054601F0CFFB11498E
:104650004B7C01F11C0C5FFA83FE0CEB831C0023E6
:1046600002E00133202B13D01CF81320D8B2002A0B
:10467000F7D1094A03EB4E1E03EB430301EB4E0156
:1046800042F8335002EBC30301220A775C6038BD65
:10469000184638BD380D0020E00900201F2808D832
:1046A0000A494B7C00EB431301EB43031A7F012AB9
:1046B00001D0002070474B7C00EB431301EB430318
:1046C0004FF0000C104683F81CC07047380D0020D6
:1046D00010B5054CD4E90401FEF790FC237F0133AB
:1046E000181841F1000110BDE80C00202DE9F04F31
:1046F000AC4A53688FB0C3F3080383460491002B80
:1047000040F0628108230393049B1B78012B00F285
:104710003D82A54E26B1002140F22E50AFF300801D
:104720000023A24C05934FF0010926B1002140F26D
:104730003B50AFF30080B9F1000F04D19C4B0BB19B
:10474000AFF3008062B6657CEDB24FF00003A37159
:10475000039B002B40F09880A84626B1002140F230
:104760004F50AFF3008001F09DFC049A00950AAB16
:104770008246FFF737FC26B1002140F25750AFF3D5
:1047800000800BEB481904EB49094FEA481799F8E8
:104790001C30013B012B75D80A992AF07F4AA1EB06
:1047A0000A0222F07F4323F00103002B40F0BD807A
:1047B00008EB4802224407EB0B03907804EB430319
:1047C0000421202819774FEA4803C1B200F09681EE
:1047D000394404EB410181F81DB0434423445F4454
:1047E00004EB470783F802B020237B77002305936F
:1047F000012726B1002140F25C50AFF300806D4BE1
:104800000BB1AFF30080EFF31088C14672B6A37905
:10481000002B8AD1684B0BEB4B0C03EBCC0C0AAB97
:104820000FCB0CF1080C8CE80F008FB1039B002B11
:1048300000F0EA80059B23B1604B1B78202B00F031
:104840006081637CDB4303F001036374FF23A37186
:10485000B8F1000F04D1564B0BB1AFF3008062B634
:1048600026B1002140F29350AFF30080002F4AD1CF
:1048700026B1002140F29F50AFF3008038460FB0C0
:10488000BDE8F08F0027B4E74D4B05F1010A0AF0AF
:10489000010A03EB851E03EB8A1CBEE80F00ACE89F
:1048A0000F00BEE80F00ACE80F00BEE80F00ACE858
:1048B0000F009EE80F002DB28CE80F00D0460FFAD3
:1048C0008AF726B100214FF47370AFF3008005EB37
:1048D000450507EB47076319625B9B78E253274462
:1048E000BB7056B100214FF47470AFF3008026B155
:1048F000002140F24550AFF30080A379002B7FF4F4
:1049000014AF554629E7637C03EB43031C446378EB
:10491000202BADD026B1002140F29A50AFF3008099
:10492000284B187800F08CFDA2E722F07F42B2F508
:10493000000F3FF63DAF0C9B5B18A3EB0A0323F07F
:104940007F43B3F5000F3FF633AF0DF127030DF1B1
:10495000260229460AA8FFF75BFA059000285AD1DB
:1049600008EB480222440423907889F81C304FEA6F
:1049700048032028C1B2434418BFC91923445F44E7
:1049800004EB470718BF04EB410183F802B04FF076
:10499000200314BF81F81DB082F801B07B77012796
:1049A00027E700BF00ED00E000000000380D002008
:1049B0000000000000000000E0090020E00C0020E2
:1049C000540D0020100D0020103B59B20029C0F2F8
:1049D0008D8001F1604101F5614191F800335B097F
:1049E0000393002B7FF490AE704B1B78202B00F0CC
:1049F000D280049B1B780393002B3FF48AAE40F2D5
:104A00002751702000F00CFCFF23A371B8F1000FB8
:104A10007FF426AF1FE79DF826C09DF827E0F445F8
:104A200018D1BCF1200F00F09E8007EB0C0304EBC3
:104A300043035B7F89F81D30BC4404EB4C0C00221F
:104A40008CF81DB05F4404EB4703059F05920322D9
:104A50001A77CEE6BEF1200F00F0A28007EB0E031E
:104A600004EB4303BCF1200F597F00F0878007EB74
:104A70000C0204EB42024FEA4803507F0690517744
:104A80004FF0050A3A1804EB420201468E45814672
:104A900082F81CA0507FF5D103EB08022244079155
:104AA00092F802A0BAF1200F5FFA8AFE63D0BE44EA
:104AB00004EB4E0E069A8EF81D2003EB08022244EA
:104AC000079982F80290394407EB0B024FF0200E51
:104AD00004EB410104EB4202F44581F81DE05077FC
:104AE000AAD14344059A04F803B0ABE703F00F03DF
:104AF000043B13441B7E5B09039372E782F801B009
:104B00006BE629460220FFF77DFB00287FF499AE73
:104B1000637C03EB430020440BEB431204EB4202A3
:104B200085780421DFB211775A015B00202DE9B2AC
:104B30003B4418BF891823445A4418BF04EB410171
:104B400004EB420283F802B04FF0200318BF81F853
:104B50001DB0059F08BF80F801B05377B8F1000F72
:104B60007FF47EAE77E608EB4803E35C89F81D30FE
:104B70004FEA4803B5E7069951709EE708EB4802F3
:104B80004FEA4803A05C0690A15479E740F22B510C
:104B9000702000F045FB40F22451702000F040FBF3
:104BA00040F2CB11702000F03BFB00BFE00C002076
:104BB00070B586B007280DD8DFE800F0310C0C0C7A
:104BC0000C1D040E5F4B4FF080419A690123C1F820
:104BD0000835136006B070BD5B4B5C4A1B7803EB75
:104BE000430302EBC30052F833304068042106B09F
:104BF000BDE870401847534C237C002B48D0D4E9C3
:104C00000223B3F1FF3F08BFB2F1FF3F00F0848001
:104C10000120FEF77BFD0023237406B070BD494CD4
:104C2000D4E90223B3F1FF3F08BFB2F1FF3F55D0F3
:104C3000454E0120FEF76AFD3378202B55D0444DB8
:104C40006A7F012A3BD0FDF797FD0346002835D146
:104C500094F89C200132D2B2312A84F89C206CD87E
:104C60004FF47A7230786946CDE90032CDE90233EB
:104C7000CDE90433FFF73AFD002859D095F82040DC
:104C8000012385F82030FFF795FB85F82040A1E748
:104C90002D4B2E4A1B782E4903EB43034FF0FF3474
:104CA0004FF0FF35C1E9024502EBC30152F8333042
:104CB0004868052106B0BDE8704018473378234A9C
:104CC00003EB430302EBC30052F83330406800218A
:104CD00084F89C1006B0BDE87040184701F07CF8DD
:104CE00001F0E0F9C4E90201A2E7637C03EB4301B0
:104CF000DAB2635C202B16D003EB421204EB4202C3
:104D0000507F6054FF21A171114D33700221117742
:104D1000002285F8202093E701F05EF801F0C2F947
:104D2000C4E9020174E740F24221702000F078FAF1
:104D300040F21961702000F073FA40F215617020A2
:104D400000F06EFA380D0020E00C0020E009002091
:104D5000E80C002070B5224B1A78202A86B035D096
:104D6000204CD4E90213B3F1FF3F08BFB1F1FF3F7C
:104D700031D11D4E02EB420206EBC2060546D6E9D2
:104D80000201FEF73BF9337D00225B1952410133EA
:104D900042F10002181842EB01010DF10B0204ABC5
:104DA000009203AAFEF78CF99DF80B20DDE90413AD
:104DB0000F2A94BF00220122521843F1000305205C
:104DC000C4E90223FEF730FC06B070BD40F2AF71BB
:104DD000702000F025FA4FF4F661702000F020FA00
:104DE000E00C0020E80C0020E009002038B5254B3D
:104DF00093F800E0BEF1200F3FD0234D6B7C95F877
:104E000011C003EB43035FFA8CFCEB5C202B25D035
:104E10001E4C4FEA4C1C05E0634405EB43035B7FEB
:104E2000202B1BD003EB430204EBC202917D814295
:104E3000F2D80EEB4E0E04EBCE04D4E90213206937
:104E400040189168D26843F10003C41C43F1000389
:104E5000A14272EB030304D2002038BD4FF0FF30B3
:104E600038BD0B4B081A03381C68FEF7B9F804F17B
:104E700032038342F0D8001B38BD40F2E471702049
:104E800000F0CEF9E00C0020380D0020E0090020F1
:104E9000E80C00202DE9F04F8C4B1D7887B0202DB9
:104EA000019000F00D81DFF82892DFF8288299F850
:104EB000113003EB43030646D8F8000019F803400D
:104EC000D8F8103003930DF11302D8F8183002937C
:104ED0008B46304405A9FEF7C7F87F4BA6F1320296
:104EE0009A426AD8DFF8F4A1059BD8F8146005EB64
:104EF00045050AEBC505A8681B182869D8F81050A5
:104F00001818401B20F07F43B3F5000F55D899F8CF
:104F10001120C8F81800202C88F81EB0D2B200F07A
:104F2000C2805201DC462021934604EB4402401922
:104F30000AEBC20246F1000ED2E90263864273EB2D
:104F40000E034FEA440746D3537D012B03D098F854
:104F50001D30012B35D005200091FEF70BFB009989
:104F600099F811004FF0FF324FF0FF332029C8E9C4
:104F70000223C0B240F0958000EB4000202419F8D5
:104F80000030524A99F81110127802EB411209EBE5
:104F900042025377D8F80030019A1344C8F8003021
:104FA000FF2389F80630202C35D04D4B187800F0BF
:104FB00047FA002007B0BDE8F08F012007B0BDE838
:104FC000F08F009100F00CFF751B013085420099B5
:104FD000C1DA98F81EC027440AEBC707BB7D6345BA
:104FE0000DD90BEB040309EB43035B7F202B16D099
:104FF0002146D8E90456D8F818001C4695E7DDE9A3
:105000000231D8F810205B189B1A0220C8F818301B
:1050100007B0BDE8F08F002007B0BDE8F08F052095
:10502000FEF7A8FA4FF0FF324FF0FF3399F8110066
:10503000C8E90223C0B204EB401309EB4303460066
:105040005A7F00EB4003410119F803A009F803203F
:105050004FF0050C5346CF1809EB47071A46944208
:105060001D4687F81CC07B7FF5D137184F440A4492
:1050700097F802E0BEF1200F5FFA8EFC18BF8C4457
:10508000304418BF09EB4C0C09EB420248444FF086
:10509000200114BF8CF81DA087F801A085705177FE
:1050A0006FE70C46C7E70520FEF764FA99F8110090
:1050B0004FF0FF324FF0FF33C8E90223C0B25BE785
:1050C00040F60D01702000F0ABF800BFE00C0020AE
:1050D000380D0020E80C0020CE3F420FE0090020F0
:1050E000100D0020BFF34F8F0549064BCA6802F42C
:1050F000E0621343CB60BFF34F8F00BFFDE700BFFB
:1051000000ED00E00400FA05094B01225A604FF05F
:10511000FF32C3F80823074B4FF48042C3F88020C6
:10512000BFF34F8FBFF36F8FC3F88021704700BF6D
:1051300000E0004000E100E0094B01225A604FF01E
:10514000FF32C3F80823074B4FF48052C3F8802086
:10515000BFF34F8FBFF36F8FC3F88021704700BF3D
:1051600000C0004000E100E0084B0022C3F8FC2F23
:105170000122C3F8FC2F064B0222C3F88020BFF3A4
:105180004F8FBFF36F8FC3F880217047001000402E
:1051900000E100E0F8B51B4E337805460C46174693
:1051A0006BBB00F091F9FDF795FA174B7760002D76
:1051B00008BF1D4628463472FFF7D6FFFFF7BCFF35
:1051C000FFF7A2FF00F00EFE0546B0B9FFF7BAF8F0
:1051D00000F00AFE00F0B7FE002C0CDB04F01F020A
:1051E0006409A40004F1604404F561440123934080
:1051F000C4F880312360012333702846F8BD4FF096
:10520000FF35FAE7D80D00202AEF060008B572B680
:10521000024B5B6803B19847FFF764FFD80D00208D
:105220001FB572B6134B5D688DB9FFF75BFFB2FB1C
:10523000F6F2DCB20133002AF9D104F110036B4419
:1052400003F80C2C0A2234B901A8A847EDE702465E
:1052500000230A26EDE7631E04AEDCB256FA83F3A0
:10526000B0FBF2F602FB1600303003F80C0C3046AF
:10527000E9E700BFD80D0020074B93F90830002B59
:1052800009DB5A09012103F01F0301FA03F340323D
:10529000024941F822307047D80D002000E100E0BB
:1052A000014B1878704700BFD80D00202DE9F84F4A
:1052B000DFF8C4A0314C324DDFF8C8900746012614
:1052C0009AF800805FFA88F8FF238AF80030B8F176
:1052D000000F01D08AF80130EFF3108272B600237C
:1052E0006660C4F80031C4F80431C4F8047526605F
:1052F0003AB962B605E0D4F8043133B92B69DB065C
:1053000020D4D4F80031002BF5D0D4F80431002B90
:10531000E2D1B8F1000F13D19AF80130DBB28AF86C
:10532000018003214FF48042C4F80813C4F80481BB
:10533000C4F80081C9F880218AF80080002BBFD111
:10534000BDE8F88F4FF48043C9F88031EFF3108B3C
:1053500072B60323C4F80433D4F8003113B9D4F877
:1053600004311BB1BBF1000FCBD1C2E700F0C6FE88
:10537000BBF1000FC5D1BCE7E40D002000E0004008
:1053800000ED00E000E100E0FFF790BF1B4B4FF4A1
:10539000805270B5C3F88020BFF34F8FBFF36F8F7B
:1053A000174D184C0021C5F80011C3F8802126695B
:1053B000236943F0100323610123C5F8043306F089
:1053C00010062B60D5F80031A3B11EB9236923F074
:1053D000100323610A4B0122D3F808055A60C3F871
:1053E00008230022C3F80021044B4FF48052C3F875
:1053F000802170BD00F082FEE4E700BF00E100E024
:1054000000C0004000ED00E038B50C490246052020
:105410000138C0B2FF2803D148216920FFF700FFFF
:1054200001EBC0031D7905F0FF04002DF0D141F818
:10543000302001225C719C711A7138BDE80D00208A
:10544000042808B503D958216920FFF7E9FE094B64
:1054500003EBC0000379012B01D05921F4E7437914
:1054600082790133DBB29A4218BF4371BDE808402C
:10547000FFF702BFE80D002070B5124C062500268C
:10548000013D15F0FF0500D170BD94F8281004EB24
:10549000C1031A79012A09D158799A79904205D025
:1054A0005A79D2B29A7154F83130984794F828302A
:1054B0000133DBB2042B94BF84F8283084F82860D1
:1054C000DEE700BFE80D00204FF08052034BD2F81A
:1054D00030111960D2F834215A607047140E002040
:1054E000034B1868A0F10F0358425841704700BFA2
:1054F000140E0020034B1868A0F10A0358425841CB
:10550000704700BF140E0020034B1868A0F10E0373
:1055100058425841704700BF140E0020034B1868D2
:10552000A0F1100358425841704700BF140E0020EC
:10553000044B1868062803D0431C58425841704752
:1055400001207047140E0020034B1868A0F10D03D2
:1055500058425841704700BF140E0020034B186892
:10556000A0F1080358425841704700BF140E0020B4
:1055700008B5FFF7BFFF20B1024B5868B0FA80F0C2
:10558000400908BD140E002008B5FFF7A9FF70B947
:10559000FFF7B0FF58B9FFF7B7FF40B9FFF7C8FFF3
:1055A000044A054B002808BF1346184608BD024BA5
:1055B000FBE700BF00E701400C05004008B5FFF71E
:1055C000B7FF08B3EFF3108072B6104A1369116980
:1055D00041F010011161A2F5406203F01003D2F80E
:1055E0000011D2F804210A4300D040BF20BF00BF01
:1055F00000BF00BF00BF23B9044A136923F01003A2
:10560000136100B962B608BD20BFFCE700ED00E001
:105610002DE9F04184075FFA81FE5FD0002A59D05E
:10562000034601E0002A55D003F801EB990702F187
:10563000FF32F7D14EEA0E24032A44EA04443ED94D
:10564000151FAE08172D06F10106C3F3800147D9D7
:105650009846002940D048F8044B771A03EB810C98
:1056600079080CEBC101CCE900440CF1080C614550
:10567000F9D127F0010C08EB8C016745CCEB8C7855
:1056800005EB880517D02F1F032F0C6013D9A5F148
:105690000807032F4C600ED9A5F10C07032F8C606F
:1056A00009D9A5F11007032FCC6004D9143D032DAF
:1056B0000C6188BF4C6102F0030203EB86034AB120
:1056C000013A83F800E005D0012A83F801E018BF11
:1056D00083F802E0BDE8F0811546BEE70346A9E77E
:1056E00019461546CFE700BF014B1B681B681847DA
:1056F00048000020014B1B685B68184748000020E9
:10570000014B1B689B68184748000020014B1B6831
:105710001B6918474800002038B50420204CFFF7CB
:1057200065FB2568854228BF054604212846FFF70A
:10573000B1FB30B10138C0B2012820D94FF4A271B9
:1057400008E02368E068AB420DD1FFF703FB20B906
:105750004FF492716B20FFF763FDE26823682261CA
:105760001344E36038BD05446089E5600123281ACD
:105770002375FFF7EFFA68B94FF49771EAE7012351
:10578000E06823756389C01AFFF7E4FA10B94FF493
:105790009E71DFE76289E3689B1A2361E2E700BF3D
:1057A000200E002008B50C4B1A7802F0FF0312B14E
:1057B0005A1E1A4203D0E0216B20FFF731FD19B1C8
:1057C000034207D1E521F7E723EA00039B0601D155
:1057D000E921F1E708BD00BF4C00002008B50D4BE2
:1057E00001221A764FF482721A841A68DA615A68B2
:1057F0009A62094A93F830000221117003F11801EE
:10580000FEF774FF20B940F205116B20FFF708FD89
:1058100008BD00BF200E00204C00002070B5EFF343
:10582000108572B6264C94F831600023012E84F85E
:10583000313006D0022E1DD0002E3BD185F31088CA
:1058400070BD85F3108894F8323003F0FF0123B166
:1058500040F251116B20FFF7E3FC1420FFF7A2FF89
:10586000184B84F832601B78012BE9D1BDE87040F9
:10587000FFF7B4BF94F8322012B94FF4B171E9E7E1
:10588000104984F832300B78023BDBB21E2B0ED865
:10589000012202FA03F30C4A1342CFD144F204026C
:1058A000134204D020230B70FEF784FDC6E74FF4AB
:1058B000BF71CFE785F310884FF4D271CAE700BFFC
:1058C000200E00204C0000204100004070B5144C18
:1058D00094F8335025B140F287216B20FFF7A0FCEC
:1058E000104B84F8325001261E700F4B0F484FF4B6
:1058F000C852C4E900230E4BA360FFF785FD29467B
:1059000084F834000B48FEF79DFE202884F8300010
:1059100002D140F29621E0E784F8336070BD00BF09
:10592000200E00204C000020FF3F420F1D580000B9
:105930000500B700A55A000008B5104B93F83320B6
:1059400022B940F2F6216B20FFF76AFCEFF31081D9
:1059500072B693F8312022B1012A0DD040F20631FF
:10596000F1E7022283F8312001B962B693F83400DE
:10597000BDE80840FFF764BD0022F3E7200E0020D9
:105980000B4B93F8333010B523B940F215316B202F
:10599000FFF746FCEFF3108472B6064B1A78102A14
:1059A00003D108221A70FEF705FD04B962B610BDD6
:1059B000200E00204C00002070B5164B1B78042BE5
:1059C00025D1154E337D1BB973893068C01A70BD5F
:1059D00000F066FB10F11E0441F10005FEF778FEB1
:1059E00033691B1841F100019C4275EB01004FF037
:1059F00000020CD2181B4FF0FF3361EB050183420C
:105A000072EB0103E3D2A7216B20FFF709FC002012
:105A1000DDE700BF4C000020200E002038B5144CFC
:105A200094F8333023B940F2CB216B20FFF7F8FB19
:105A3000EFF3108572B694F8313023B1022B0DD0FC
:105A400040F2DE21F1E7012384F8313005B962B676
:105A500094F83400BDE83840FFF7F2BC054B1B78E2
:105A60000022042B84F83120F0D137F0D5F8EDE78F
:105A7000200E00204C00002008B5094B1978102991
:105A8000CAB207D0202A05D0042A04D110221A70E5
:105A900037F0D2F808BD40F2C3116B20FFF7C0FB0E
:105AA0004C00002070B50C46FDF7BAFC062C48D817
:105AB000DFE804F00451512823645D000121022035
:105AC000FFF770FE304B314A93F8321079B1042160
:105AD00011701A68DA6000221A7593F83130022BBF
:105AE00001D037F099F8BDE87040FFF715BE2023CC
:105AF0001370BDE87040FEF75DBC40F20F216B20D3
:105B0000FFF78EFB204E96F83230D3B11F4B1B7837
:105B1000042B17D100F0C4FA05460C46FEF7D8FD59
:105B2000337D012B0BD13269121841F100039542EC
:105B300074EB030303D3BDE87040FFF79DBF10F083
:105B4000D7FC70BD124B0222C3F88020BFF34F8FE9
:105B5000BFF36F8FF5E701210220FFF723FE0A4B09
:105B600093F8323033B1BDE87040FFF737BE012102
:105B70002820F2E7054B01221A70E2E7024B1B7D59
:105B8000012BB0D1D7E700BF200E00204C00002031
:105B900000E100E07BB972B90029BEBF00204FF0E0
:105BA000004106E008BF00281CBF6FF000414FF025
:105BB000FF3000F057B8ADF1080C6DE904CE0029B4
:105BC00009DB002B1ADB00F0B6FADDF804E0DDE9B2
:105BD000022304B07047404261EB4101002B1BDB04
:105BE00000F0A9FADDF804E0DDE9022304B0404248
:105BF00061EB4101524263EB43037047524263EB56
:105C0000430300F098FADDF804E0DDE9022304B074
:105C1000404261EB41017047524263EB430300F0A5
:105C20008AFADDF804E0DDE9022304B0524263EBB6
:105C30004303704753B94AB9002908BF00281CBF65
:105C40004FF0FF314FF0FF3000F00CB8ADF1080C11
:105C50006DE904CE00F06FFADDF804E0DDE902231F
:105C600004B07047704700BF10F8012B11F8013BDA
:105C7000012A28BF9A42F7D0D01A7047034613F87A
:105C8000012B002AFBD1181A0138704708B5FFF71D
:105C90001BFCBDE80840FCF71DBD801A00F307009F
:105CA00038B540B20D4659B21446FCF703FD002347
:105CB000287020446B7040B238BD73B5A0F10B045E
:105CC0000E46E1B20F29154603D94F216420FFF794
:105CD000A7FA0DF1030332460420FCF7A7FC0346A4
:105CE00008B15821F2E704EB840404F665149DF929
:105CF0000300A2B201A9FCF789FC9DF804302B70C7
:105D00009DF805306B7002B070BD002303607047D2
:105D10007047002070474FF0FF3070474FF0FF3062
:105D200070477047002070474FF0FF3070470020E9
:105D30007047002070470023037070470022FFF770
:105D4000ACBF002070474FF0FF3070474FF0FF307E
:105D500070474FF0FF3070477047C0B270474FF048
:105D6000804301221A6070474FF08043D3F8080443
:105D700000F0010070474FF08043D3F8140400F0A6
:105D8000010070474FF08043D3F81C0400F003007B
:105D900070474FF080410246D1F81804D1F818142A
:105DA00010F4803004D001F00300831A58425841A7
:105DB000704708B5FFF7DCFB28B14FF080430222A3
:105DC000C3F8342C08BDFFF7B3FB0028F5D1FFF76B
:105DD000C5FB0028F1D1F5E7FCF70CBDFCF738BD99
:105DE000FCF702BDFCF70EBEFCF74CBDFCF7FEBD98
:105DF00008B5FCF7EFFC002008BD38B5054691F862
:105E000027000C46FEF74AFC18B9E8216A20FFF784
:105E100007FA0023A38484F826300921236A284640
:105E2000984718B103780BB1EC21EFE738BD426811
:105E300008B5034611441A785960012AA1F15000AF
:105E400006D1FEF787FF40B9CC216A20FFF7E8F9B9
:105E5000FEF780FF08B9D121F7E708BDF8B5044681
:105E60000E4619B9012384F829303BE00D78032D43
:105E7000F8D8DFE805F0390212154868C72802D8BB
:105E800000252846F8BD0421FFF704F80028F7D1C3
:105E900071682046FFF7CBFFF3E7FCF721FFF0E73F
:105EA00090F82470F7B94D682846FCF7EDFE0028FD
:105EB000D8D02B78D3B9012222702B79003B18BFA0
:105EC000012363726B79002B0CBF0223042323721E
:105ED000AB686F336360EB682361032384F826307B
:105EE00084F82520FCF7FCFE0225CAE794F826304A
:105EF000052B04D04FF4C8716A20FFF791F9277081
:105F00002B7994F82700003B18BF012363726B794B
:105F1000002B0CBF022304232372EB68A9686F33A4
:105F20006360D4E906325B1842EBE172C4E90432E3
:105F3000042384F826302146FEF7D8FB0028D1D16F
:105F40004FF4C971D8E770B5FDF720F80024054675
:105F50002646E0B2854200D870BDFDF71DF8013439
:105F6000868480F82660F4E7F8B504460D46FDF710
:105F70000DF800270646F8B2864204D8082D0CD941
:105F80006FF0150008E0FDF707F890F826300137AC
:105F9000002BF0D04FF0FF30F8BD2CB12946204641
:105FA000BDE8F840FDF706B821462046F8E738B5C9
:105FB0000546FCF7F1FF014688B190F824408CB902
:105FC00090F8263073B1013B012B04D82846FFF727
:105FD00014FF204638BD012380F82430F9E76FF024
:105FE0000100F7E76FF02200F4E770B50D46FCF70B
:105FF000D3FF0446002848D090F82660731E012B7A
:1060000049D8002D44D02846FCF73EFE00283FD05A
:106010002B78FBB9012323702B79003B18BF012398
:1060200063726B79002B0CBF022304232372AB68CD
:106030006F336360EB682361032394F8270084F8CF
:1060400026302146FEF752FB40BB40F2BD216A20BC
:10605000FFF7E6F8022E1ED1002323702B79003BB8
:1060600018BF012363726B79002B18BF04262672B8
:10607000EB68A9686F336360D4E906325B1842EBC2
:10608000E172C4E904320423D7E76FF0010070BD68
:106090006FF01500FBE76FF02200F8E70020F6E74D
:1060A000FDF7C4B907B56846FDF7B4F8DDE90002AD
:1060B0004FF080730021E2FB030103B05DF804FBA5
:1060C0000346002018707047EFF3108272B6037811
:1060D0000121DBB2017002B962B6012B0CBF6FF077
:1060E000220000207047EFF3108372B60022027086
:1060F00003B962B600207047FFF7BEB9FFF75EBA7A
:10610000FFF75CBA00280CBF6FF015000020704745
:10611000002070470723037000207047002070475D
:106120000020704710B50446FFF746FCA04294BF1C
:106130000020012010BD2DE9F04786468C46084618
:10614000089E154674461946002B40F0C2808542D1
:10615000B2FA82F245D94AB1C2F1200300FA02FC38
:106160002EFA03F3954043EA0C0C94404FEA154E87
:10617000A8B2BCFBFEF8230C0EFB18CC08FB00F900
:1061800043EA0C43994528D9EB1808F1FF3704D2AC
:10619000994502D9A8F102072B44A3EB0903A4B245
:1061A000B3FBFEFC0EFB1C330CFB00F044EA034483
:1061B000A04214D92C190CF1FF3304D2A04202D909
:1061C000ACF102032C44241A43EA07401EB1D44028
:1061D000002334607360BDE8F0874746DDE763461F
:1061E000F1E792BB431B01214FEA154EAFB2B3FB5F
:1061F000FEFC200C0EFB1C330CFB07F840EA0343AB
:10620000984562D9EB180CF1FF3004D2984502D9B9
:10621000ACF102002B44A3EB0803A4B2B3FBFEFCD9
:106220000EFB1C330CFB07F744EA0344A7424ED98C
:106230002C190CF1FF3304D2A74202D9ACF10203AE
:106240002C44E41B43EA0040C0E7C2F1200320FADB
:1062500003F1954090402EFA03F303434FEA154EA5
:10626000AFB2B1FBFEFC0EFB1C10190C0CFB07F8C7
:1062700041EA0041884504FA02F422D969180CF178
:10628000FF3004D2884502D9ACF102002944A1EBC9
:1062900008019BB2B1FBFEFC0EFB1C110CFB07F7C7
:1062A00043EA01439F420ED9EB180CF1FF3104D2AF
:1062B0009F4202D9ACF102012B44DB1B41EA0041B1
:1062C00092E76046E3E76146F7E76046A3E7634687
:1062D000B7E7834206D916B9002108467BE7C6E92D
:1062E00000E0F9E7B3FA83F78FB9834201D372452F
:1062F00008D8BEEB020460EB030301209C461EB9E4
:10630000002168E73846FAE7C6E9004CF8E7C7F12C
:10631000200CBB4022FA0CF41C432EFA0CF120FA9C
:106320000CF3B84001434FEA14490EFA07F5B3FBEA
:10633000F9F81FFA84FE09FB18300B0C08FB0EFA63
:1063400043EA00439A4502FA07F240D9E31808F1FC
:10635000FF3004D29A4502D9A8F102002344A3EBEE
:106360000A0389B2B3FBF9F809FB183308FB0EFEE8
:1063700041EA03418E452CD9611808F1FF3304D25C
:106380008E4502D9A8F10203214443EA0040A0FB54
:106390000298A1EB0E014145CE46434602D306D1F9
:1063A0004D4504D2B9EB020E68EB04030138002E10
:1063B000A6D0B5EB0E0261EB030101FA0CFC22FA48
:1063C00007F34CEA0303F940C6E9003198E7404679
:1063D000C5E74346D9E700002DE9F047064688B0F7
:1063E0000F46904664F08DF84FF47A73A0FB034596
:1063F00003FB0155E40B012F44EA45444FEAD53530
:1064000007D1294922462B46304648F049FB002057
:1064100012E0D8F8047025483946FFF725FC70B122
:1064200023483946FFF720FC48B1304621493A4617
:1064300048F052FB6FF0040008B0BDE8F08720463A
:10644000294617A3D3E90023FFF7A4FB05460C4612
:1064500010461946184A0023FFF79CFB80460F465A
:10646000104619464EF660220023FFF793FB824642
:106470008946104619464FF47A720023FFF78AFBCB
:10648000CDE902A9CDE90623CDE90401CDE90087D4
:106490000A492A462346304648F002FBB7E700BFC8
:1064A000005C260500000000F7160700081707002B
:1064B0000B1707001417070080EE36002C17070093
:1064C0002DE9F04F93F81080046987B01F46B8F1AA
:1064D0007D0FDB68039381460E46154600F22C8142
:1064E00008F1020304F2516A039984F850364246D7
:1064F000504668F08EF904F5C76B584634F020FE1C
:10650000022E53D005D9F31E012B6AD96FF08505F1
:10651000ADE00023ADF8153095F85B30C3F34002D1
:10652000C3F380038DF8113001238DF81330884BAD
:106530008DF8102093F8FC368DF8143006F0010623
:1065400004A904F5CA608DF812600CF0B1FE0028B1
:1065500000F091807E4BD3F8F4361BB13A4600210F
:10656000484698474FF0FF334FF0FF32584634F01B
:10657000C1FD42460398514668F04BF994F8FA265B
:1065800095F85B3062F3410385F85B3094F8FB26A5
:10659000DBB262F3820385F85B3094F8D036052BCA
:1065A00069D8DFE803F06B62C6CC68C60023ADF89B
:1065B000143095F85B30C3F34002C3F380038DF8C9
:1065C000113001238DF81230614B8DF8102093F8B3
:1065D000FC368DF8133004A904F5CA600CF09AFE5D
:1065E000B5E70023CDF8133095F85B30C3F34002D4
:1065F000C3F380038DF81130331F5E425E418DF886
:1066000010208DF812604CF0CBF901238DF8143076
:106610004F4B8DF8130093F8FC368DF81530D5E903
:1066200008024C4B83424FF00203934118D34A4B6C
:10663000A0FB030103FB0211AB6AC01841F100018A
:106640004FF47A720023FFF7A5FA64F02FF90B4696
:1066500004A90246009104F5CA604CF0C2F976E73D
:106660004FF0FF306FF00041EAE76FF00F0528466A
:1066700007B0BDE8F08F6FF00405F8E7D4F8DC56FA
:10668000002DF4D0D4F8E036D4F8E42613434AD0F1
:106690002D78206800220023CDE9002300231A462C
:1066A000294606F0FBFD064600283FD0D4F8DC164C
:1066B0002A4601314AF09EFF002831DB94F8E83683
:1066C00086F8593094F9E936AE339BB2FE2B28BFD9
:1066D000FE2386F85A30D4F8E006D4F8E4764FF476
:1066E0007A75A0FB050105FB071117A3D3E9002369
:1066F000FFF750FAC6E90801B26230464AF02FFDB2
:10670000206831460BF0A6F9002530464AF0D4FC4B
:10671000D4F8DC064CF096F90023C4F8DC36A6E782
:106720006FF00B05F1E76FF02205F1E76FF00B0555
:10673000EEE76FF022059AE76FF0790597E76FF0C3
:10674000680594E7AFF3008000CA9A3B00000000A0
:10675000800E0020037DC12500CA9A3B0000000086
:106760002DE9F34706464FF0FF384FF0FF3900F5AB
:106770008F6A4FF0FF324FF0FF33504634F062FC27
:1067800043681F78044600231A463946CDE900893C
:10679000306806F083FD61683A46013105464AF0EB
:1067A00029FF0746002835D1237C85F8593094F914
:1067B0001130AE339BB2FE2B28BFFE2385F85A3032
:1067C000A27C95F85B3062F3000385F85B30A0682B
:1067D000D4F80CE04FF47A71A0FB010C01FB0EC160
:1067E00011A3D3E90023FFF7D5F9C5E90801AA628F
:1067F000E27C95F85B3062F3C30385F85B30306868
:10680000294649F04EFC002804DB606867604CF0C4
:1068100019F9AEE70023606863604CF013F928466D
:106820004AF04AFCA5E700BF00CA9A3B00000000FE
:106830002DE9F0413E4F3F4EBB8832683E4C3F4D04
:10684000B9793F482980023B13822368DB68984767
:1068500023682878D3F814803A4D0BF06BF8014682
:106860003748C0473B7F29683548C3F30002C3F36C
:1068700000135B0043EA820391F85B2022F00602DA
:10688000134381F85B3023685B689847C00520D5C7
:106890007B69F3B13869D5F8008018444BF098FE55
:1068A00021A3D3E90023FFF775F9C8E9080123689C
:1068B000C8F828209C692A68336804212048A0472A
:1068C000431D1CD0E0B110F1230F0CBF0E200F2090
:1068D00016E0397F236811F004011ED05B68184868
:1068E0009847C106236804D59C692A683368022149
:1068F000E4E79B681248984748B1421DE3D10B205A
:10690000114B1870BDE8F04104200BF05DB823680E
:106910002A689C6933680146D0E79C692A68336815
:10692000CCE700BFAFF3008000CA9A3B0000000034
:10693000901D0020C8DF0020C4DF002020F60020CA
:106940002CED0600CCDF0020AE320120000000005C
:106950002DE9F3411E461C4B83424FF000038B414F
:10696000044615460AD216A3D3E90023FFF762F9BD
:10697000164914460246284652F050F9144BB4FB0F
:10698000F3F24EF6602103FB12444FF47A78B4FB25
:10699000F1F3284601FB13440E49B4FBF8F70097C6
:1069A00052F03CF946B10C4908FB1742284602B0A8
:1069B000BDE8F04152F032B902B0BDE8F08100BF4D
:1069C000005C260500000000FF5B2605A45D0700B3
:1069D00080EE3600AA5D0700B95D07000146034856
:1069E00083685B6C0BB1012218477047B4EC06005A
:1069F00013B50020019001F041FB08B1783017D1A8
:106A00000D4C0CE0A3689B6C4BB101AA04212046FD
:106A1000984720B940F6CD40002135F01FF9019B81
:106A2000002BEFD00820FFF7D9FF1020FFF7D6FF8B
:106A3000002002B010BD00BFB4EC060010B5094C38
:106A40000A44914200D110BD11F8013B584003099E
:106A50000001E35CC0B2434018091B01205CDBB2BB
:106A60005840EEE728160700014B1B68184700BF87
:106A700000010020014B1860704700BF000100209A
:106A800007B50B46002102460091034800F080F84C
:106A900003B05DF804FB00BF696A000030B587B041
:106AA0000025CDE903010446009503A90548059595
:106AB00000F06EF8DDE904309842B8BF255407B005
:106AC00030BD00BF09D60400F0B5094E016802468A
:106AD0000A2700200B4601311C78355D6D0701D473
